{
  "contractName": "Selection",
  "abi": [
    {
      "constant": true,
      "inputs": [
        {
          "name": "",
          "type": "uint256"
        }
      ],
      "name": "agents",
      "outputs": [
        {
          "name": "id",
          "type": "uint256"
        },
        {
          "name": "name",
          "type": "string"
        },
        {
          "name": "agentAddress",
          "type": "address"
        },
        {
          "name": "busy",
          "type": "bool"
        }
      ],
      "payable": false,
      "stateMutability": "view",
      "type": "function",
      "signature": "0x513856c8"
    },
    {
      "constant": true,
      "inputs": [
        {
          "name": "",
          "type": "address"
        }
      ],
      "name": "engagers",
      "outputs": [
        {
          "name": "",
          "type": "bool"
        }
      ],
      "payable": false,
      "stateMutability": "view",
      "type": "function",
      "signature": "0x6ba688e8"
    },
    {
      "constant": true,
      "inputs": [],
      "name": "owner",
      "outputs": [
        {
          "name": "",
          "type": "address"
        }
      ],
      "payable": false,
      "stateMutability": "view",
      "type": "function",
      "signature": "0x8da5cb5b"
    },
    {
      "constant": true,
      "inputs": [],
      "name": "agentsCount",
      "outputs": [
        {
          "name": "",
          "type": "uint256"
        }
      ],
      "payable": false,
      "stateMutability": "view",
      "type": "function",
      "signature": "0xdf30ae37"
    },
    {
      "inputs": [],
      "payable": false,
      "stateMutability": "nonpayable",
      "type": "constructor",
      "signature": "constructor"
    },
    {
      "payable": true,
      "stateMutability": "payable",
      "type": "fallback"
    },
    {
      "anonymous": false,
      "inputs": [
        {
          "indexed": true,
          "name": "_agentId",
          "type": "uint256"
        }
      ],
      "name": "engagedEvent",
      "type": "event",
      "signature": "0x3eb1a7eb3c61ea2cf41d34e49115d8865f99bfdd711442b323459f30ea3ede04"
    },
    {
      "anonymous": false,
      "inputs": [
        {
          "indexed": true,
          "name": "_agentId",
          "type": "uint256"
        }
      ],
      "name": "DisputeResolved",
      "type": "event",
      "signature": "0x57cce005d496355471bb5269f1dea3d6c81b6ac14c1d74ba28aefb022357013b"
    },
    {
      "constant": false,
      "inputs": [
        {
          "name": "username",
          "type": "string"
        },
        {
          "name": "_agentAddress",
          "type": "address"
        }
      ],
      "name": "addAgent",
      "outputs": [],
      "payable": false,
      "stateMutability": "nonpayable",
      "type": "function",
      "signature": "0xf810d4f1"
    },
    {
      "constant": false,
      "inputs": [
        {
          "name": "_agentId",
          "type": "uint256"
        }
      ],
      "name": "engage",
      "outputs": [],
      "payable": true,
      "stateMutability": "payable",
      "type": "function",
      "signature": "0x306f4a2b"
    },
    {
      "constant": false,
      "inputs": [
        {
          "name": "_agentId",
          "type": "uint256"
        }
      ],
      "name": "engageLocal",
      "outputs": [],
      "payable": true,
      "stateMutability": "payable",
      "type": "function",
      "signature": "0x78e6d842"
    },
    {
      "constant": false,
      "inputs": [
        {
          "name": "_agentId",
          "type": "uint256"
        }
      ],
      "name": "resolveDispute",
      "outputs": [
        {
          "name": "",
          "type": "bool"
        }
      ],
      "payable": false,
      "stateMutability": "nonpayable",
      "type": "function",
      "signature": "0xc2b7b868"
    },
    {
      "constant": true,
      "inputs": [
        {
          "name": "_agentId",
          "type": "uint256"
        }
      ],
      "name": "fetchAgent",
      "outputs": [
        {
          "name": "id",
          "type": "uint256"
        },
        {
          "name": "name",
          "type": "string"
        },
        {
          "name": "agentAddress",
          "type": "address"
        },
        {
          "name": "busy",
          "type": "bool"
        }
      ],
      "payable": false,
      "stateMutability": "view",
      "type": "function",
      "signature": "0x31c8c4f1"
    }
  ],
  "bytecode": "0x60806040523480156200001157600080fd5b50336000806101000a81548173ffffffffffffffffffffffffffffffffffffffff021916908373ffffffffffffffffffffffffffffffffffffffff160217905550620000b66040805190810160405280601481526020017f636f6e73656e7379732e696e666c75656e63657200000000000000000000000081525073e5d210b3ec941c71c20096dde60ee0e6db74c0cc620000bc640100000000026401000000009004565b6200032b565b6000809054906101000a900473ffffffffffffffffffffffffffffffffffffffff1673ffffffffffffffffffffffffffffffffffffffff163373ffffffffffffffffffffffffffffffffffffffff1614151562000181576040517f08c379a000000000000000000000000000000000000000000000000000000000815260040180806020018281038252601a8152602001807f4f6e6c79206f776e657220616c6c6f776564206163636573732e00000000000081525060200191505060405180910390fd5b60036000815480929190600101919050555060806040519081016040528060035481526020018381526020018273ffffffffffffffffffffffffffffffffffffffff168152602001600015158152506002600060035481526020019081526020016000206000820151816000015560208201518160010190805190602001906200020d9291906200027c565b5060408201518160020160006101000a81548173ffffffffffffffffffffffffffffffffffffffff021916908373ffffffffffffffffffffffffffffffffffffffff16021790555060608201518160020160146101000a81548160ff0219169083151502179055509050505050565b828054600181600116156101000203166002900490600052602060002090601f016020900481019282601f10620002bf57805160ff1916838001178555620002f0565b82800160010185558215620002f0579182015b82811115620002ef578251825591602001919060010190620002d2565b5b509050620002ff919062000303565b5090565b6200032891905b80821115620003245760008160009055506001016200030a565b5090565b90565b6110f3806200033b6000396000f3fe608060405260043610610099576000357c0100000000000000000000000000000000000000000000000000000000900463ffffffff168063306f4a2b1461009b57806331c8c4f1146100c9578063513856c8146101c25780636ba688e8146102bb57806378e6d842146103245780638da5cb5b14610352578063c2b7b868146103a9578063df30ae37146103fc578063f810d4f114610427575b005b6100c7600480360360208110156100b157600080fd5b810190808035906020019092919050505061050f565b005b3480156100d557600080fd5b50610102600480360360208110156100ec57600080fd5b810190808035906020019092919050505061085d565b60405180858152602001806020018473ffffffffffffffffffffffffffffffffffffffff1673ffffffffffffffffffffffffffffffffffffffff16815260200183151515158152602001828103825285818151815260200191508051906020019080838360005b83811015610184578082015181840152602081019050610169565b50505050905090810190601f1680156101b15780820380516001836020036101000a031916815260200191505b509550505050505060405180910390f35b3480156101ce57600080fd5b506101fb600480360360208110156101e557600080fd5b81019080803590602001909291905050506109a0565b60405180858152602001806020018473ffffffffffffffffffffffffffffffffffffffff1673ffffffffffffffffffffffffffffffffffffffff16815260200183151515158152602001828103825285818151815260200191508051906020019080838360005b8381101561027d578082015181840152602081019050610262565b50505050905090810190601f1680156102aa5780820380516001836020036101000a031916815260200191505b509550505050505060405180910390f35b3480156102c757600080fd5b5061030a600480360360208110156102de57600080fd5b81019080803573ffffffffffffffffffffffffffffffffffffffff169060200190929190505050610a95565b604051808215151515815260200191505060405180910390f35b6103506004803603602081101561033a57600080fd5b8101908080359060200190929190505050610ab5565b005b34801561035e57600080fd5b50610367610d0f565b604051808273ffffffffffffffffffffffffffffffffffffffff1673ffffffffffffffffffffffffffffffffffffffff16815260200191505060405180910390f35b3480156103b557600080fd5b506103e2600480360360208110156103cc57600080fd5b8101908080359060200190929190505050610d34565b604051808215151515815260200191505060405180910390f35b34801561040857600080fd5b50610411610e5f565b6040518082815260200191505060405180910390f35b34801561043357600080fd5b5061050d6004803603604081101561044a57600080fd5b810190808035906020019064010000000081111561046757600080fd5b82018360208201111561047957600080fd5b8035906020019184600183028401116401000000008311171561049b57600080fd5b91908080601f016020809104026020016040519081016040528093929190818152602001838380828437600081840152601f19601f820116905080830192505050505050509192919290803573ffffffffffffffffffffffffffffffffffffffff169060200190929190505050610e65565b005b662386f26fc1000034101515156105b4576040517f08c379a000000000000000000000000000000000000000000000000000000000815260040180806020018281038252602f8152602001807f4e6f7420656e6f756768204554482073656e742e204d696e696d756d2045544881526020017f2072657175697265643a20302e3031000000000000000000000000000000000081525060400191505060405180910390fd5b60001515600160003373ffffffffffffffffffffffffffffffffffffffff1673ffffffffffffffffffffffffffffffffffffffff16815260200190815260200160002060009054906101000a900460ff1615151415156106a2576040517f08c379a00000000000000000000000000000000000000000000000000000000081526004018080602001828103825260288152602001807f5573657220616c726561647920656e6761676564207769746820616e6f74686581526020017f72206167656e742e00000000000000000000000000000000000000000000000081525060400191505060405180910390fd5b806000811180156106b557506003548111155b1515610729576040517f08c379a000000000000000000000000000000000000000000000000000000000815260040180806020018281038252600c8152602001807f496e636f7272656374204944000000000000000000000000000000000000000081525060200191505060405180910390fd5b60018060003373ffffffffffffffffffffffffffffffffffffffff1673ffffffffffffffffffffffffffffffffffffffff16815260200190815260200160002060006101000a81548160ff02191690831515021790555060016002600084815260200190815260200160002060020160146101000a81548160ff0219169083151502179055506002600083815260200190815260200160002060020160009054906101000a900473ffffffffffffffffffffffffffffffffffffffff1673ffffffffffffffffffffffffffffffffffffffff166108fc349081150290604051600060405180830381858888f1935050505015801561082b573d6000803e3d6000fd5b50817f3eb1a7eb3c61ea2cf41d34e49115d8865f99bfdd711442b323459f30ea3ede0460405160405180910390a25050565b6000606060008060026000868152602001908152602001600020600001549350600260008681526020019081526020016000206001018054600181600116156101000203166002900480601f0160208091040260200160405190810160405280929190818152602001828054600181600116156101000203166002900480156109275780601f106108fc57610100808354040283529160200191610927565b820191906000526020600020905b81548152906001019060200180831161090a57829003601f168201915b505050505092506002600086815260200190815260200160002060020160009054906101000a900473ffffffffffffffffffffffffffffffffffffffff1691506002600086815260200190815260200160002060020160149054906101000a900460ff1690508383838393509350935093509193509193565b6002602052806000526040600020600091509050806000015490806001018054600181600116156101000203166002900480601f016020809104026020016040519081016040528092919081815260200182805460018160011615610100020316600290048015610a525780601f10610a2757610100808354040283529160200191610a52565b820191906000526020600020905b815481529060010190602001808311610a3557829003601f168201915b5050505050908060020160009054906101000a900473ffffffffffffffffffffffffffffffffffffffff16908060020160149054906101000a900460ff16905084565b60016020528060005260406000206000915054906101000a900460ff1681565b60013410151515610b54576040517f08c379a000000000000000000000000000000000000000000000000000000000815260040180806020018281038252602f8152602001807f4e6f7420656e6f756768204554482073656e742e204d696e696d756d2045544881526020017f2072657175697265643a20302e3031000000000000000000000000000000000081525060400191505060405180910390fd5b80600081118015610b6757506003548111155b1515610bdb576040517f08c379a000000000000000000000000000000000000000000000000000000000815260040180806020018281038252600c8152602001807f496e636f7272656374204944000000000000000000000000000000000000000081525060200191505060405180910390fd5b60018060003373ffffffffffffffffffffffffffffffffffffffff1673ffffffffffffffffffffffffffffffffffffffff16815260200190815260200160002060006101000a81548160ff02191690831515021790555060016002600084815260200190815260200160002060020160146101000a81548160ff0219169083151502179055506002600083815260200190815260200160002060020160009054906101000a900473ffffffffffffffffffffffffffffffffffffffff1673ffffffffffffffffffffffffffffffffffffffff166108fc349081150290604051600060405180830381858888f19350505050158015610cdd573d6000803e3d6000fd5b50817f3eb1a7eb3c61ea2cf41d34e49115d8865f99bfdd711442b323459f30ea3ede0460405160405180910390a25050565b6000809054906101000a900473ffffffffffffffffffffffffffffffffffffffff1681565b60008060009054906101000a900473ffffffffffffffffffffffffffffffffffffffff1673ffffffffffffffffffffffffffffffffffffffff163373ffffffffffffffffffffffffffffffffffffffff16141515610dfa576040517f08c379a000000000000000000000000000000000000000000000000000000000815260040180806020018281038252601a8152602001807f4f6e6c79206f776e657220616c6c6f776564206163636573732e00000000000081525060200191505060405180910390fd5b60006002600084815260200190815260200160002060020160146101000a81548160ff021916908315150217905550817f57cce005d496355471bb5269f1dea3d6c81b6ac14c1d74ba28aefb022357013b60405160405180910390a260019050919050565b60035481565b6000809054906101000a900473ffffffffffffffffffffffffffffffffffffffff1673ffffffffffffffffffffffffffffffffffffffff163373ffffffffffffffffffffffffffffffffffffffff16141515610f29576040517f08c379a000000000000000000000000000000000000000000000000000000000815260040180806020018281038252601a8152602001807f4f6e6c79206f776e657220616c6c6f776564206163636573732e00000000000081525060200191505060405180910390fd5b60036000815480929190600101919050555060806040519081016040528060035481526020018381526020018273ffffffffffffffffffffffffffffffffffffffff16815260200160001515815250600260006003548152602001908152602001600020600082015181600001556020820151816001019080519060200190610fb3929190611022565b5060408201518160020160006101000a81548173ffffffffffffffffffffffffffffffffffffffff021916908373ffffffffffffffffffffffffffffffffffffffff16021790555060608201518160020160146101000a81548160ff0219169083151502179055509050505050565b828054600181600116156101000203166002900490600052602060002090601f016020900481019282601f1061106357805160ff1916838001178555611091565b82800160010185558215611091579182015b82811115611090578251825591602001919060010190611075565b5b50905061109e91906110a2565b5090565b6110c491905b808211156110c05760008160009055506001016110a8565b5090565b9056fea165627a7a72305820a64f0256b9c2686bde46699493a27d2b66da139cfb6f6285c59ef7dc02fba1d50029",
  "source": "pragma solidity 0.5.0;\n\ncontract Selection {\n\n    /* set owner */\n  address public owner;\n\n  // Model a Agent\n  struct Agent {\n    uint256 id;\n    string name;\n    address payable agentAddress;\n    bool busy;\n  }\n\n  // Store accounts that have engaged\n  mapping(address => bool) public engagers;\n\n  // Store Agents\n  // Fetch Agent\n  mapping(uint256 => Agent) public agents;\n\n  // Store Agents Count\n  uint256 public agentsCount;\n\n  // voted event\n  event engagedEvent (uint256 indexed _agentId);\n\n  event DisputeResolved(uint256 indexed _agentId);\n\n  constructor () public {\n    owner = msg.sender;\n    // TODO: uncomment below for rinkeby testnet\n    // addAgent(\"0x45539C89A9836399C45C3a8c0F01e8ae4EB43dFD\");\n    // addAgent(\"ETH_agent_2\");\n    // addAgent(\"ETH_agent_3\");\n    // addAgent(\"ETH_agent_4\");\n\n    // For testing we will use the Ganache network\n    addAgent(\"consensys.influencer\", 0xE5d210b3EC941C71C20096Dde60eE0e6dB74C0cC);\n    // addAgent(\"consensys.influencer\", 0x838574D3AB509D87430b49460e2bA326bbE51B77);\n    // addAgent(\"consensys.influencer\", 0x838574D3AB509D87430b49460e2bA326bbE51B77);\n    // addAgent(\"consensys.influencer\", 0x838574D3AB509D87430b49460e2bA326bbE51B77);\n  }\n\n  function addAgent (string memory username, address payable _agentAddress) public onlyOwner {\n    agentsCount ++;\n    agents[agentsCount] = Agent(agentsCount, username , _agentAddress, false);\n  }\n\n  modifier paidEnough () {\n    // require minimum payment.\n    require(msg.value >= 0.01 ether, \"Not enough ETH sent. Minimum ETH required: 0.01\");\n    _;\n  }\n\n    modifier paidEnoughLocal () {\n    // require minimum payment.\n    require(msg.value >= 1, \"Not enough ETH sent. Minimum ETH required: 0.01\");\n    _;\n  }\n\n  modifier userAlreadyAssigned () {\n    // require that user has not engaged already.\n    require(engagers[msg.sender] == false, \"User already engaged with another agent.\");\n    _;\n  }\n\n  modifier validAgent (uint256 _agentId) {\n    // require a valid agent\n    require(_agentId > 0 && _agentId <= agentsCount, \"Incorrect ID\");\n    _;\n  }\n\n  modifier onlyOwner {\n    require(msg.sender == owner, \"Only owner allowed access.\");\n    _;\n  }\n\n  function engage (uint256 _agentId) public payable paidEnough() userAlreadyAssigned() validAgent(_agentId) {\n    // record that user is engaging with agent\n    engagers[msg.sender] = true;\n\n    // update agent Count\n    agents[_agentId].busy = true;\n    agents[_agentId].agentAddress.transfer(msg.value);\n    // trigger engagement event\n    emit engagedEvent(_agentId);\n  }\n\n  // Used to test contract functionality. \n  function engageLocal (uint256 _agentId) public payable paidEnoughLocal() validAgent(_agentId) {\n    // record that user is engaging with agent\n    engagers[msg.sender] = true;\n\n    // update agent Count\n    agents[_agentId].busy = true;\n    agents[_agentId].agentAddress.transfer(msg.value);\n    // trigger engagement event\n    emit engagedEvent(_agentId);\n  }\n\n  /* Mimick example of a dispute between a buyer and agent. */\n  function resolveDispute (uint256 _agentId) public onlyOwner returns (bool) {\n    agents[_agentId].busy = false;\n    // trigger resolved event\n    emit DisputeResolved(_agentId);\n    return true;\n  }\n\n  function fetchAgent (uint256 _agentId) public view returns (uint256 id, string memory name, address payable agentAddress, bool busy) {\n    id = agents[_agentId].id;\n    name = agents[_agentId].name;\n    agentAddress = agents[_agentId].agentAddress;\n    busy = agents[_agentId].busy;\n    return (id, name, agentAddress, busy);\n  }\n\n  // Allow contract to receive ether\n  function () external payable {}\n}\n",
  "sourcePath": "/Users/anmar/ethgram/contracts/Selection.sol",
  "compiler": {
    "name": "solc",
    "version": "0.5.0+commit.1d4f565a.Emscripten.clang"
  },
  "schemaVersion": "3.0.0",
  "updatedAt": "2019-01-27T11:29:24.718Z",
  "devdoc": {
    "methods": {}
  },
  "userdoc": {
    "methods": {}
  }
}