{
  "contractName": "Selection",
  "abi": [
    {
      "constant": true,
      "inputs": [
        {
          "name": "",
          "type": "uint256"
        }
      ],
      "name": "agents",
      "outputs": [
        {
          "name": "id",
          "type": "uint256"
        },
        {
          "name": "name",
          "type": "string"
        },
        {
          "name": "agentAddress",
          "type": "address"
        },
        {
          "name": "busy",
          "type": "bool"
        }
      ],
      "payable": false,
      "stateMutability": "view",
      "type": "function",
      "signature": "0x513856c8"
    },
    {
      "constant": true,
      "inputs": [
        {
          "name": "",
          "type": "address"
        }
      ],
      "name": "engagers",
      "outputs": [
        {
          "name": "",
          "type": "bool"
        }
      ],
      "payable": false,
      "stateMutability": "view",
      "type": "function",
      "signature": "0x6ba688e8"
    },
    {
      "constant": true,
      "inputs": [],
      "name": "agentsCount",
      "outputs": [
        {
          "name": "",
          "type": "uint256"
        }
      ],
      "payable": false,
      "stateMutability": "view",
      "type": "function",
      "signature": "0xdf30ae37"
    },
    {
      "inputs": [],
      "payable": false,
      "stateMutability": "nonpayable",
      "type": "constructor",
      "signature": "constructor"
    },
    {
      "payable": true,
      "stateMutability": "payable",
      "type": "fallback"
    },
    {
      "anonymous": false,
      "inputs": [
        {
          "indexed": true,
          "name": "_agentId",
          "type": "uint256"
        }
      ],
      "name": "engagedEvent",
      "type": "event",
      "signature": "0x3eb1a7eb3c61ea2cf41d34e49115d8865f99bfdd711442b323459f30ea3ede04"
    },
    {
      "constant": false,
      "inputs": [
        {
          "name": "_agentId",
          "type": "uint256"
        }
      ],
      "name": "engage",
      "outputs": [],
      "payable": true,
      "stateMutability": "payable",
      "type": "function",
      "signature": "0x306f4a2b"
    }
  ],
  "bytecode": "0x608060405234801561001057600080fd5b506100736040805190810160405280601481526020017f636f6e73656e7379732e696e666c75656e63657200000000000000000000000081525073e5d210b3ec941c71c20096dde60ee0e6db74c0cc610078640100000000026401000000009004565b610216565b60026000815480929190600101919050555060806040519081016040528060025481526020018381526020018273ffffffffffffffffffffffffffffffffffffffff16815260200160001515815250600160006002548152602001908152602001600020600082015181600001556020820151816001019080519060200190610102929190610171565b5060408201518160020160006101000a81548173ffffffffffffffffffffffffffffffffffffffff021916908373ffffffffffffffffffffffffffffffffffffffff16021790555060608201518160020160146101000a81548160ff0219169083151502179055509050505050565b828054600181600116156101000203166002900490600052602060002090601f016020900481019282601f106101b257805160ff19168380011785556101e0565b828001600101855582156101e0579182015b828111156101df5782518255916020019190600101906101c4565b5b5090506101ed91906101f1565b5090565b61021391905b8082111561020f5760008160009055506001016101f7565b5090565b90565b610684806102256000396000f3fe608060405260043610610062576000357c0100000000000000000000000000000000000000000000000000000000900463ffffffff168063306f4a2b14610064578063513856c8146100925780636ba688e81461018b578063df30ae37146101f4575b005b6100906004803603602081101561007a57600080fd5b810190808035906020019092919050505061021f565b005b34801561009e57600080fd5b506100cb600480360360208110156100b557600080fd5b810190808035906020019092919050505061053d565b60405180858152602001806020018473ffffffffffffffffffffffffffffffffffffffff1673ffffffffffffffffffffffffffffffffffffffff16815260200183151515158152602001828103825285818151815260200191508051906020019080838360005b8381101561014d578082015181840152602081019050610132565b50505050905090810190601f16801561017a5780820380516001836020036101000a031916815260200191505b509550505050505060405180910390f35b34801561019757600080fd5b506101da600480360360208110156101ae57600080fd5b81019080803573ffffffffffffffffffffffffffffffffffffffff169060200190929190505050610632565b604051808215151515815260200191505060405180910390f35b34801561020057600080fd5b50610209610652565b6040518082815260200191505060405180910390f35b6000803373ffffffffffffffffffffffffffffffffffffffff1673ffffffffffffffffffffffffffffffffffffffff16815260200190815260200160002060009054906101000a900460ff161515156102e0576040517f08c379a00000000000000000000000000000000000000000000000000000000081526004018080602001828103825260108152602001807f416c726561647920656e67616765642e0000000000000000000000000000000081525060200191505060405180910390fd5b6000811180156102f257506002548111155b1515610366576040517f08c379a000000000000000000000000000000000000000000000000000000000815260040180806020018281038252600c8152602001807f496e636f7272656374204944000000000000000000000000000000000000000081525060200191505060405180910390fd5b662386f26fc10000341015151561040b576040517f08c379a000000000000000000000000000000000000000000000000000000000815260040180806020018281038252602f8152602001807f4e6f7420656e6f756768204554482073656e742e204d696e696d756d2045544881526020017f2072657175697265643a20302e3031000000000000000000000000000000000081525060400191505060405180910390fd5b60016000803373ffffffffffffffffffffffffffffffffffffffff1673ffffffffffffffffffffffffffffffffffffffff16815260200190815260200160002060006101000a81548160ff021916908315150217905550600180600083815260200190815260200160002060020160146101000a81548160ff0219169083151502179055506001600082815260200190815260200160002060020160009054906101000a900473ffffffffffffffffffffffffffffffffffffffff1673ffffffffffffffffffffffffffffffffffffffff166108fc349081150290604051600060405180830381858888f1935050505015801561050c573d6000803e3d6000fd5b50807f3eb1a7eb3c61ea2cf41d34e49115d8865f99bfdd711442b323459f30ea3ede0460405160405180910390a250565b6001602052806000526040600020600091509050806000015490806001018054600181600116156101000203166002900480601f0160208091040260200160405190810160405280929190818152602001828054600181600116156101000203166002900480156105ef5780601f106105c4576101008083540402835291602001916105ef565b820191906000526020600020905b8154815290600101906020018083116105d257829003601f168201915b5050505050908060020160009054906101000a900473ffffffffffffffffffffffffffffffffffffffff16908060020160149054906101000a900460ff16905084565b60006020528060005260406000206000915054906101000a900460ff1681565b6002548156fea165627a7a72305820ae397567fb86667d6e49a7e7f6329b3a60f4803fdf285aeae4b6466ee0ee0cbb0029",
  "source": "pragma solidity 0.5.0;\n\ncontract Selection {\n  // Model a Agent\n  struct Agent {\n    uint256 id;\n    string name;\n    address payable agentAddress;\n    bool busy;\n  }\n\n  // Store accounts that have voted\n  mapping(address => bool) public engagers;\n\n  // Store Agents\n  // Fetch Agent\n  mapping(uint256 => Agent) public agents;\n\n  // Store Agents Count\n  uint256 public agentsCount;\n\n  // voted event\n  event engagedEvent (\n  uint256 indexed _agentId\n  );\n\n  constructor () public {\n    // TODO: uncomment below for rinkeby testnet\n    // addAgent(\"0x45539C89A9836399C45C3a8c0F01e8ae4EB43dFD\");\n    // addAgent(\"ETH_agent_2\");\n    // addAgent(\"ETH_agent_3\");\n    // addAgent(\"ETH_agent_4\");\n\n    // For testing we will use the Ganache network\n    addAgent(\"consensys.influencer\", 0xE5d210b3EC941C71C20096Dde60eE0e6dB74C0cC);\n    // addAgent(\"consensys.influencer\", 0x838574D3AB509D87430b49460e2bA326bbE51B77);\n    // addAgent(\"consensys.influencer\", 0x838574D3AB509D87430b49460e2bA326bbE51B77);\n    // addAgent(\"consensys.influencer\", 0x838574D3AB509D87430b49460e2bA326bbE51B77);\n  }\n\n  function addAgent (string memory username, address payable _agentAddress) private {\n    agentsCount ++;\n    agents[agentsCount] = Agent(agentsCount, username , _agentAddress, false);\n  }\n\n  function engage (uint256 _agentId) public payable {\n    // require that they haven't engaged before\n    require(!engagers[msg.sender], \"Already engaged.\");\n\n    // require a valid agent\n    require(_agentId > 0 && _agentId <= agentsCount, \"Incorrect ID\");\n\n    // require user sent enough eth payment\n    require(msg.value >= 0.01 ether, \"Not enough ETH sent. Minimum ETH required: 0.01\");\n\n    // record that user is engaging with agent\n    engagers[msg.sender] = true;\n\n    // update agent Count\n    agents[_agentId].busy = true;\n    agents[_agentId].agentAddress.transfer(msg.value);\n    // trigger engagement event\n    emit engagedEvent(_agentId);\n  }\n\n  // function engage (uint256 _agentId) public {\n  //   // require that they haven't engaged before\n  //   require(!engagers[msg.sender], \"Already engaged.\");\n\n  //   // require a valid agent\n  //   require(_agentId > 0 && _agentId <= agentsCount, \"Incorrect ID\");\n\n  //   // record that user is engaging with agent\n  //   engagers[msg.sender] = true;\n\n  //   // update agent Count\n  //   agents[_agentId].busy = true;\n  //   // trigger engagement event\n  //   emit engagedEvent(_agentId);\n  // }\n\n  function () external payable {\n    // payable contract\n    // if(msg.value >= minimumPayment){\n    //   for(uint256 i = 0; i < agentsCount; i++){\n    //     if(){\n    //       engage();\n    //     }\n    //   }\n    // }\n  }\n}\n",
  "sourcePath": "/home/ubuntu/ethgram/contracts/Selection.sol",
  "compiler": {
    "name": "solc",
    "version": "0.5.0+commit.1d4f565a.Emscripten.clang"
  },
  "schemaVersion": "3.0.1",
  "updatedAt": "2019-01-26T18:24:20.976Z",
  "devdoc": {
    "methods": {}
  },
  "userdoc": {
    "methods": {}
  }
}