{
  "contractName": "Selection",
  "abi": [
    {
      "constant": true,
      "inputs": [
        {
          "name": "",
          "type": "uint256"
        }
      ],
      "name": "agents",
      "outputs": [
        {
          "name": "id",
          "type": "uint256"
        },
        {
          "name": "name",
          "type": "string"
        },
        {
          "name": "agentAddress",
          "type": "address"
        },
        {
          "name": "busy",
          "type": "bool"
        }
      ],
      "payable": false,
      "stateMutability": "view",
      "type": "function",
      "signature": "0x513856c8"
    },
    {
      "constant": true,
      "inputs": [
        {
          "name": "",
          "type": "address"
        }
      ],
      "name": "engagers",
      "outputs": [
        {
          "name": "",
          "type": "bool"
        }
      ],
      "payable": false,
      "stateMutability": "view",
      "type": "function",
      "signature": "0x6ba688e8"
    },
    {
      "constant": true,
      "inputs": [],
      "name": "owner",
      "outputs": [
        {
          "name": "",
          "type": "address"
        }
      ],
      "payable": false,
      "stateMutability": "view",
      "type": "function",
      "signature": "0x8da5cb5b"
    },
    {
      "constant": true,
      "inputs": [],
      "name": "agentsCount",
      "outputs": [
        {
          "name": "",
          "type": "uint256"
        }
      ],
      "payable": false,
      "stateMutability": "view",
      "type": "function",
      "signature": "0xdf30ae37"
    },
    {
      "inputs": [],
      "payable": false,
      "stateMutability": "nonpayable",
      "type": "constructor",
      "signature": "constructor"
    },
    {
      "payable": true,
      "stateMutability": "payable",
      "type": "fallback"
    },
    {
      "anonymous": false,
      "inputs": [
        {
          "indexed": true,
          "name": "_agentId",
          "type": "uint256"
        }
      ],
      "name": "Engaged",
      "type": "event",
      "signature": "0x7c712d79a63c8edc2d6df3595f2f155627f61b86196e52d5b2ca8a08089ca838"
    },
    {
      "anonymous": false,
      "inputs": [
        {
          "indexed": true,
          "name": "_agentId",
          "type": "uint256"
        }
      ],
      "name": "DisputeResolved",
      "type": "event",
      "signature": "0x57cce005d496355471bb5269f1dea3d6c81b6ac14c1d74ba28aefb022357013b"
    },
    {
      "anonymous": false,
      "inputs": [
        {
          "indexed": true,
          "name": "_agentId",
          "type": "uint256"
        }
      ],
      "name": "AgentAmended",
      "type": "event",
      "signature": "0xd9dd667c311462df3a1d4bbd5bb8088cdf172a887563794b8ed97d1584d9cd38"
    },
    {
      "constant": false,
      "inputs": [
        {
          "name": "username",
          "type": "string"
        },
        {
          "name": "_agentAddress",
          "type": "address"
        }
      ],
      "name": "addAgent",
      "outputs": [],
      "payable": false,
      "stateMutability": "nonpayable",
      "type": "function",
      "signature": "0xf810d4f1"
    },
    {
      "constant": false,
      "inputs": [],
      "name": "activateEmergency",
      "outputs": [],
      "payable": false,
      "stateMutability": "nonpayable",
      "type": "function",
      "signature": "0x457e8b97"
    },
    {
      "constant": false,
      "inputs": [
        {
          "name": "_agentId",
          "type": "uint256"
        }
      ],
      "name": "engage",
      "outputs": [],
      "payable": true,
      "stateMutability": "payable",
      "type": "function",
      "signature": "0x306f4a2b"
    },
    {
      "constant": false,
      "inputs": [
        {
          "name": "_agentId",
          "type": "uint256"
        }
      ],
      "name": "engageLocal",
      "outputs": [],
      "payable": true,
      "stateMutability": "payable",
      "type": "function",
      "signature": "0x78e6d842"
    },
    {
      "constant": false,
      "inputs": [
        {
          "name": "_agentId",
          "type": "uint256"
        }
      ],
      "name": "resolveDispute",
      "outputs": [
        {
          "name": "",
          "type": "bool"
        }
      ],
      "payable": false,
      "stateMutability": "nonpayable",
      "type": "function",
      "signature": "0xc2b7b868"
    },
    {
      "constant": true,
      "inputs": [
        {
          "name": "_agentId",
          "type": "uint256"
        }
      ],
      "name": "fetchAgent",
      "outputs": [
        {
          "name": "id",
          "type": "uint256"
        },
        {
          "name": "name",
          "type": "string"
        },
        {
          "name": "agentAddress",
          "type": "address"
        },
        {
          "name": "busy",
          "type": "bool"
        }
      ],
      "payable": false,
      "stateMutability": "view",
      "type": "function",
      "signature": "0x31c8c4f1"
    },
    {
      "constant": false,
      "inputs": [
        {
          "name": "_agentId",
          "type": "uint256"
        }
      ],
      "name": "amendAgent",
      "outputs": [
        {
          "name": "",
          "type": "bool"
        }
      ],
      "payable": false,
      "stateMutability": "nonpayable",
      "type": "function",
      "signature": "0xc867a2b1"
    }
  ],
  "bytecode": "0x608060405260008060006101000a81548160ff0219169083151502179055503480156200002b57600080fd5b5033600060016101000a81548173ffffffffffffffffffffffffffffffffffffffff021916908373ffffffffffffffffffffffffffffffffffffffff160217905550620000d16040805190810160405280601181526020017f6c697465636f696e5f6f6666696369616c00000000000000000000000000000081525073c01af5741c52ea8dda9166030a104f86cf18162262000203640100000000026401000000009004565b620001356040805190810160405280600e81526020017f6d6f6e65726f63757272656e6379000000000000000000000000000000000000815250737c2968a3402641fafca01d11e3824ce10460abcc62000203640100000000026401000000009004565b620001996040805190810160405280600c81526020017f626974636f696e5f7061676500000000000000000000000000000000000000008152507301d563609e1fa074cd1de7039d5d29d4f1a8d9dc62000203640100000000026401000000009004565b620001fd6040805190810160405280600b81526020017f6c6f6c6f6170706172656c0000000000000000000000000000000000000000008152507306e1beec1aa0cb4f843edc49e4301611671fdd8462000203640100000000026401000000009004565b62000473565b600060019054906101000a900473ffffffffffffffffffffffffffffffffffffffff1673ffffffffffffffffffffffffffffffffffffffff163373ffffffffffffffffffffffffffffffffffffffff16141515620002c9576040517f08c379a000000000000000000000000000000000000000000000000000000000815260040180806020018281038252601a8152602001807f4f6e6c79206f776e657220616c6c6f776564206163636573732e00000000000081525060200191505060405180910390fd5b60036000815480929190600101919050555060806040519081016040528060035481526020018381526020018273ffffffffffffffffffffffffffffffffffffffff1681526020016000151581525060026000600354815260200190815260200160002060008201518160000155602082015181600101908051906020019062000355929190620003c4565b5060408201518160020160006101000a81548173ffffffffffffffffffffffffffffffffffffffff021916908373ffffffffffffffffffffffffffffffffffffffff16021790555060608201518160020160146101000a81548160ff0219169083151502179055509050505050565b828054600181600116156101000203166002900490600052602060002090601f016020900481019282601f106200040757805160ff191683800117855562000438565b8280016001018555821562000438579182015b82811115620004375782518255916020019190600101906200041a565b5b5090506200044791906200044b565b5090565b6200047091905b808211156200046c57600081600090555060010162000452565b5090565b90565b6114c680620004836000396000f3fe6080604052600436106100af576000357c0100000000000000000000000000000000000000000000000000000000900463ffffffff168063306f4a2b146100b157806331c8c4f1146100df578063457e8b97146101d8578063513856c8146101ef5780636ba688e8146102e857806378e6d842146103515780638da5cb5b1461037f578063c2b7b868146103d6578063c867a2b114610429578063df30ae371461047c578063f810d4f1146104a7575b005b6100dd600480360360208110156100c757600080fd5b810190808035906020019092919050505061058f565b005b3480156100eb57600080fd5b506101186004803603602081101561010257600080fd5b81019080803590602001909291905050506108f3565b60405180858152602001806020018473ffffffffffffffffffffffffffffffffffffffff1673ffffffffffffffffffffffffffffffffffffffff16815260200183151515158152602001828103825285818151815260200191508051906020019080838360005b8381101561019a57808201518184015260208101905061017f565b50505050905090810190601f1680156101c75780820380516001836020036101000a031916815260200191505b509550505050505060405180910390f35b3480156101e457600080fd5b506101ed610a36565b005b3480156101fb57600080fd5b506102286004803603602081101561021257600080fd5b8101908080359060200190929190505050610b17565b60405180858152602001806020018473ffffffffffffffffffffffffffffffffffffffff1673ffffffffffffffffffffffffffffffffffffffff16815260200183151515158152602001828103825285818151815260200191508051906020019080838360005b838110156102aa57808201518184015260208101905061028f565b50505050905090810190601f1680156102d75780820380516001836020036101000a031916815260200191505b509550505050505060405180910390f35b3480156102f457600080fd5b506103376004803603602081101561030b57600080fd5b81019080803573ffffffffffffffffffffffffffffffffffffffff169060200190929190505050610c0c565b604051808215151515815260200191505060405180910390f35b61037d6004803603602081101561036757600080fd5b8101908080359060200190929190505050610c2c565b005b34801561038b57600080fd5b50610394610e60565b604051808273ffffffffffffffffffffffffffffffffffffffff1673ffffffffffffffffffffffffffffffffffffffff16815260200191505060405180910390f35b3480156103e257600080fd5b5061040f600480360360208110156103f957600080fd5b8101908080359060200190929190505050610e86565b604051808215151515815260200191505060405180910390f35b34801561043557600080fd5b506104626004803603602081101561044c57600080fd5b8101908080359060200190929190505050610fb1565b604051808215151515815260200191505060405180910390f35b34801561048857600080fd5b506104916111a7565b6040518082815260200191505060405180910390f35b3480156104b357600080fd5b5061058d600480360360408110156104ca57600080fd5b81019080803590602001906401000000008111156104e757600080fd5b8201836020820111156104f957600080fd5b8035906020019184600183028401116401000000008311171561051b57600080fd5b91908080601f016020809104026020016040519081016040528093929190818152602001838380828437600081840152601f19601f820116905080830192505050505050509192919290803573ffffffffffffffffffffffffffffffffffffffff1690602001909291905050506111ad565b005b662386f26fc100003410151515610634576040517f08c379a000000000000000000000000000000000000000000000000000000000815260040180806020018281038252602f8152602001807f4e6f7420656e6f756768204554482073656e742e204d696e696d756d2045544881526020017f2072657175697265643a20302e3031000000000000000000000000000000000081525060400191505060405180910390fd5b60001515600160003373ffffffffffffffffffffffffffffffffffffffff1673ffffffffffffffffffffffffffffffffffffffff16815260200190815260200160002060009054906101000a900460ff161515141515610722576040517f08c379a00000000000000000000000000000000000000000000000000000000081526004018080602001828103825260288152602001807f5573657220616c726561647920656e6761676564207769746820616e6f74686581526020017f72206167656e742e00000000000000000000000000000000000000000000000081525060400191505060405180910390fd5b8060008111801561073557506003548111155b15156107a9576040517f08c379a000000000000000000000000000000000000000000000000000000000815260040180806020018281038252600c8152602001807f496e636f7272656374204944000000000000000000000000000000000000000081525060200191505060405180910390fd5b6000809054906101000a900460ff1615156108ef5760018060003373ffffffffffffffffffffffffffffffffffffffff1673ffffffffffffffffffffffffffffffffffffffff16815260200190815260200160002060006101000a81548160ff02191690831515021790555060016002600084815260200190815260200160002060020160146101000a81548160ff0219169083151502179055506002600083815260200190815260200160002060020160009054906101000a900473ffffffffffffffffffffffffffffffffffffffff1673ffffffffffffffffffffffffffffffffffffffff166108fc349081150290604051600060405180830381858888f193505050501580156108c0573d6000803e3d6000fd5b50817f7c712d79a63c8edc2d6df3595f2f155627f61b86196e52d5b2ca8a08089ca83860405160405180910390a25b5050565b6000606060008060026000868152602001908152602001600020600001549350600260008681526020019081526020016000206001018054600181600116156101000203166002900480601f0160208091040260200160405190810160405280929190818152602001828054600181600116156101000203166002900480156109bd5780601f10610992576101008083540402835291602001916109bd565b820191906000526020600020905b8154815290600101906020018083116109a057829003601f168201915b505050505092506002600086815260200190815260200160002060020160009054906101000a900473ffffffffffffffffffffffffffffffffffffffff1691506002600086815260200190815260200160002060020160149054906101000a900460ff1690508383838393509350935093509193509193565b600060019054906101000a900473ffffffffffffffffffffffffffffffffffffffff1673ffffffffffffffffffffffffffffffffffffffff163373ffffffffffffffffffffffffffffffffffffffff16141515610afb576040517f08c379a000000000000000000000000000000000000000000000000000000000815260040180806020018281038252601a8152602001807f4f6e6c79206f776e657220616c6c6f776564206163636573732e00000000000081525060200191505060405180910390fd5b60016000806101000a81548160ff021916908315150217905550565b6002602052806000526040600020600091509050806000015490806001018054600181600116156101000203166002900480601f016020809104026020016040519081016040528092919081815260200182805460018160011615610100020316600290048015610bc95780601f10610b9e57610100808354040283529160200191610bc9565b820191906000526020600020905b815481529060010190602001808311610bac57829003601f168201915b5050505050908060020160009054906101000a900473ffffffffffffffffffffffffffffffffffffffff16908060020160149054906101000a900460ff16905084565b60016020528060005260406000206000915054906101000a900460ff1681565b60013410151515610ca5576040517f08c379a00000000000000000000000000000000000000000000000000000000081526004018080602001828103825260148152602001807f4e6f7420656e6f756768204554482073656e742e00000000000000000000000081525060200191505060405180910390fd5b80600081118015610cb857506003548111155b1515610d2c576040517f08c379a000000000000000000000000000000000000000000000000000000000815260040180806020018281038252600c8152602001807f496e636f7272656374204944000000000000000000000000000000000000000081525060200191505060405180910390fd5b60018060003373ffffffffffffffffffffffffffffffffffffffff1673ffffffffffffffffffffffffffffffffffffffff16815260200190815260200160002060006101000a81548160ff02191690831515021790555060016002600084815260200190815260200160002060020160146101000a81548160ff0219169083151502179055506002600083815260200190815260200160002060020160009054906101000a900473ffffffffffffffffffffffffffffffffffffffff1673ffffffffffffffffffffffffffffffffffffffff166108fc349081150290604051600060405180830381858888f19350505050158015610e2e573d6000803e3d6000fd5b50817f7c712d79a63c8edc2d6df3595f2f155627f61b86196e52d5b2ca8a08089ca83860405160405180910390a25050565b600060019054906101000a900473ffffffffffffffffffffffffffffffffffffffff1681565b60008060019054906101000a900473ffffffffffffffffffffffffffffffffffffffff1673ffffffffffffffffffffffffffffffffffffffff163373ffffffffffffffffffffffffffffffffffffffff16141515610f4c576040517f08c379a000000000000000000000000000000000000000000000000000000000815260040180806020018281038252601a8152602001807f4f6e6c79206f776e657220616c6c6f776564206163636573732e00000000000081525060200191505060405180910390fd5b60006002600084815260200190815260200160002060020160146101000a81548160ff021916908315150217905550817f57cce005d496355471bb5269f1dea3d6c81b6ac14c1d74ba28aefb022357013b60405160405180910390a260019050919050565b60008060019054906101000a900473ffffffffffffffffffffffffffffffffffffffff1673ffffffffffffffffffffffffffffffffffffffff163373ffffffffffffffffffffffffffffffffffffffff16141515611077576040517f08c379a000000000000000000000000000000000000000000000000000000000815260040180806020018281038252601a8152602001807f4f6e6c79206f776e657220616c6c6f776564206163636573732e00000000000081525060200191505060405180910390fd5b816000811180156110a757507fffffffffffffffffffffffffffffffffffffffffffffffffffffffffffffffff81105b151561111b576040517f08c379a00000000000000000000000000000000000000000000000000000000081526004018080602001828103825260168152602001807f4661696c656420626f756e6461727920636865636b2e0000000000000000000081525060200191505060405180910390fd5b6000809054906101000a900460ff16156111a15761114360018461136b90919063ffffffff16565b600260008581526020019081526020016000206000018190555060026000848152602001908152602001600020600001547fd9dd667c311462df3a1d4bbd5bb8088cdf172a887563794b8ed97d1584d9cd3860405160405180910390a25b50919050565b60035481565b600060019054906101000a900473ffffffffffffffffffffffffffffffffffffffff1673ffffffffffffffffffffffffffffffffffffffff163373ffffffffffffffffffffffffffffffffffffffff16141515611272576040517f08c379a000000000000000000000000000000000000000000000000000000000815260040180806020018281038252601a8152602001807f4f6e6c79206f776e657220616c6c6f776564206163636573732e00000000000081525060200191505060405180910390fd5b60036000815480929190600101919050555060806040519081016040528060035481526020018381526020018273ffffffffffffffffffffffffffffffffffffffff168152602001600015158152506002600060035481526020019081526020016000206000820151816000015560208201518160010190805190602001906112fc9291906113f5565b5060408201518160020160006101000a81548173ffffffffffffffffffffffffffffffffffffffff021916908373ffffffffffffffffffffffffffffffffffffffff16021790555060608201518160020160146101000a81548160ff0219169083151502179055509050505050565b60008082840190508381101515156113eb576040517f08c379a00000000000000000000000000000000000000000000000000000000081526004018080602001828103825260118152602001807f4572726f7220696e206164646974696f6e00000000000000000000000000000081525060200191505060405180910390fd5b8091505092915050565b828054600181600116156101000203166002900490600052602060002090601f016020900481019282601f1061143657805160ff1916838001178555611464565b82800160010185558215611464579182015b82811115611463578251825591602001919060010190611448565b5b5090506114719190611475565b5090565b61149791905b8082111561149357600081600090555060010161147b565b5090565b9056fea165627a7a723058207bdbdb9d0b022cef42ff1654bf8f68325f6172bf274cb33c932ed966337d88c90029",
  "source": "pragma solidity 0.5.0;\n\nimport \"./SafeMath.sol\";\n\n/*\n  Agent Selection Contract: Allows users on the Ethereum network to engage with Artificial agents.\n*/\ncontract Selection {\n  \n  // Using SafeMath Library for uint256\n  using SafeMath for uint256;\n\n  // bool variable to be used in circuit breaker\n  bool private stopped = false;\n\n  /* set owner */\n  address public owner;\n\n  // Model a Agent\n  struct Agent {\n    uint256 id;\n    string name;\n    address payable agentAddress;\n    bool busy;\n  }\n\n  // Store accounts that have engaged\n  mapping(address => bool) public engagers;\n\n  // Store Agents\n  // Fetch Agent\n  mapping(uint256 => Agent) public agents;\n\n  // Store Agents Count\n  uint256 public agentsCount;\n\n  // engaged event\n  event Engaged (uint256 indexed _agentId);\n\n  // dispute resolved event\n  event DisputeResolved (uint256 indexed _agentId);\n\n  // amended event\n  event AgentAmended (uint256 indexed _agentId);\n\n  // constructor\n  constructor () public {\n    // set owner of contract\n    owner = msg.sender;\n    addAgent(\"litecoin_official\", 0xc01Af5741c52eA8dDa9166030a104f86CF181622);\n    addAgent(\"monerocurrency\",    0x7c2968a3402641fafcA01d11E3824ce10460ABCc);\n    addAgent(\"bitcoin_page\",      0x01D563609e1fA074CD1dE7039D5D29d4F1A8d9dC);\n    addAgent(\"loloapparel\",       0x06e1BEEc1AA0Cb4F843Edc49E4301611671fDD84);\n  }\n\n  // add agents to the contract\n  function addAgent (string memory username, address payable _agentAddress) public onlyOwner {\n    agentsCount ++;\n    agents[agentsCount] = Agent(agentsCount, username , _agentAddress, false);\n  }\n\n  function activateEmergency() public onlyOwner {\n    stopped = true;\n  }\n\n  // Stop certain functionality during emergency\n  modifier stopInEmergency { if (!stopped) _; }\n\n  // Allow function to run only during emergency\n  modifier onlyInEmergency { if (stopped) _; }\n\n  // Checks if user has paid enough\n  modifier paidEnough () {\n    // require minimum payment.\n    require(msg.value >= 0.01 ether, \"Not enough ETH sent. Minimum ETH required: 0.01\");\n    _;\n  }\n\n  // Checks if user has paid enough during testing. (Only used to test contract)\n  modifier paidEnoughLocal () {\n    // require minimum payment.\n    require(msg.value >= 1, \"Not enough ETH sent.\");\n    _;\n  }\n\n  // Checks if a user has already engaged with an agent\n  modifier userAlreadyAssigned () {\n    // require that user has not engaged already.\n    require(engagers[msg.sender] == false, \"User already engaged with another agent.\");\n    _;\n  }\n\n  // Checks if the chosen agentId represents an existing agent\n  modifier validAgent (uint256 _agentId) {\n    // require a valid agent\n    require(_agentId > 0 && _agentId <= agentsCount, \"Incorrect ID\");\n    _;\n  }\n\n  // Checks if only the owner can access certain functionality\n  modifier onlyOwner {\n    require(msg.sender == owner, \"Only owner allowed access.\");\n    _;\n  }\n\n  modifier checkNumberBoundary (uint256 _num) {\n    require(_num > 0 && _num < 2**256-1, \"Failed boundary check.\");\n    _;\n  }\n\n  // Allows users to engage with agents by passing an existing ID and correct payment value\n  function engage (uint256 _agentId) public payable paidEnough() userAlreadyAssigned() validAgent(_agentId) stopInEmergency {\n    // record that user is engaging with agent\n    engagers[msg.sender] = true;\n\n    // update agent Count\n    agents[_agentId].busy = true;\n    agents[_agentId].agentAddress.transfer(msg.value);\n    // trigger engagement event\n    emit Engaged(_agentId);\n  }\n\n  // Used to test contract functionality. \n  function engageLocal (uint256 _agentId) public payable paidEnoughLocal() validAgent(_agentId) {\n    // record that user is engaging with agent\n    engagers[msg.sender] = true;\n\n    // update agent Count\n    agents[_agentId].busy = true;\n    agents[_agentId].agentAddress.transfer(msg.value);\n    // trigger engagement event\n    emit Engaged(_agentId);\n  }\n\n  /* Mimick example of a dispute between a buyer and agent. */\n  function resolveDispute (uint256 _agentId) public onlyOwner returns (bool) {\n    agents[_agentId].busy = false;\n    // trigger resolved event\n    emit DisputeResolved(_agentId);\n    return true;\n  }\n\n  // Used during testing only. Allows contract to fetch current agents by chosen Id\n  function fetchAgent (uint256 _agentId) public view returns (uint256 id, string memory name, address payable agentAddress, bool busy) {\n    id = agents[_agentId].id;\n    name = agents[_agentId].name;\n    agentAddress = agents[_agentId].agentAddress;\n    busy = agents[_agentId].busy;\n    return (id, name, agentAddress, busy);\n  }\n\n  function amendAgent(uint256 _agentId) public onlyOwner checkNumberBoundary(_agentId) onlyInEmergency returns (bool) {\n    agents[_agentId].id = _agentId.add(1);\n    emit AgentAmended(agents[_agentId].id);\n  }\n\n  // Allow contract to receive ether\n  function () external payable {}\n}\n",
  "sourcePath": "/Users/anmar/ethgram/contracts/Selection.sol",
  "compiler": {
    "name": "solc",
    "version": "0.5.0+commit.1d4f565a.Emscripten.clang"
  },
  "schemaVersion": "3.0.0",
  "updatedAt": "2019-02-03T14:37:25.287Z",
  "devdoc": {
    "methods": {}
  },
  "userdoc": {
    "methods": {}
  }
}