{
  "contractName": "Selection",
  "abi": [
    {
      "constant": true,
      "inputs": [
        {
          "name": "",
          "type": "uint256"
        }
      ],
      "name": "agents",
      "outputs": [
        {
          "name": "id",
          "type": "uint256"
        },
        {
          "name": "name",
          "type": "string"
        },
        {
          "name": "busy",
          "type": "bool"
        }
      ],
      "payable": false,
      "stateMutability": "view",
      "type": "function",
      "signature": "0x513856c8"
    },
    {
      "constant": true,
      "inputs": [
        {
          "name": "",
          "type": "address"
        }
      ],
      "name": "engagers",
      "outputs": [
        {
          "name": "",
          "type": "bool"
        }
      ],
      "payable": false,
      "stateMutability": "view",
      "type": "function",
      "signature": "0x6ba688e8"
    },
    {
      "constant": true,
      "inputs": [],
      "name": "agentsCount",
      "outputs": [
        {
          "name": "",
          "type": "uint256"
        }
      ],
      "payable": false,
      "stateMutability": "view",
      "type": "function",
      "signature": "0xdf30ae37"
    },
    {
      "inputs": [],
      "payable": false,
      "stateMutability": "nonpayable",
      "type": "constructor",
      "signature": "constructor"
    },
    {
      "payable": true,
      "stateMutability": "payable",
      "type": "fallback"
    },
    {
      "anonymous": false,
      "inputs": [
        {
          "indexed": true,
          "name": "_agentId",
          "type": "uint256"
        }
      ],
      "name": "engagedEvent",
      "type": "event",
      "signature": "0x3eb1a7eb3c61ea2cf41d34e49115d8865f99bfdd711442b323459f30ea3ede04"
    },
    {
      "constant": false,
      "inputs": [
        {
          "name": "_agentId",
          "type": "uint256"
        }
      ],
      "name": "engage",
      "outputs": [],
      "payable": false,
      "stateMutability": "nonpayable",
      "type": "function",
      "signature": "0x306f4a2b"
    }
  ],
  "bytecode": "0x608060405234801561001057600080fd5b50610085606060405190810160405280602a81526020017f307834353533394338394139383336333939433435433361386330463031653881526020017f6165344542343364464400000000000000000000000000000000000000000000815250610171640100000000026401000000009004565b6100d26040805190810160405280600b81526020017f4554485f6167656e745f32000000000000000000000000000000000000000000815250610171640100000000026401000000009004565b61011f6040805190810160405280600b81526020017f4554485f6167656e745f33000000000000000000000000000000000000000000815250610171640100000000026401000000009004565b61016c6040805190810160405280600b81526020017f4554485f6167656e745f34000000000000000000000000000000000000000000815250610171640100000000026401000000009004565b6102ab565b6002600081548092919060010191905055506060604051908101604052806002548152602001828152602001600015158152506001600060025481526020019081526020016000206000820151816000015560208201518160010190805190602001906101df929190610206565b5060408201518160020160006101000a81548160ff02191690831515021790555090505050565b828054600181600116156101000203166002900490600052602060002090601f016020900481019282601f1061024757805160ff1916838001178555610275565b82800160010185558215610275579182015b82811115610274578251825591602001919060010190610259565b5b5090506102829190610286565b5090565b6102a891905b808211156102a457600081600090555060010161028c565b5090565b90565b610516806102ba6000396000f3fe608060405260043610610062576000357c0100000000000000000000000000000000000000000000000000000000900463ffffffff168063306f4a2b14610064578063513856c81461009f5780636ba688e814610165578063df30ae37146101ce575b005b34801561007057600080fd5b5061009d6004803603602081101561008757600080fd5b81019080803590602001909291905050506101f9565b005b3480156100ab57600080fd5b506100d8600480360360208110156100c257600080fd5b81019080803590602001909291905050506103f5565b604051808481526020018060200183151515158152602001828103825284818151815260200191508051906020019080838360005b8381101561012857808201518184015260208101905061010d565b50505050905090810190601f1680156101555780820380516001836020036101000a031916815260200191505b5094505050505060405180910390f35b34801561017157600080fd5b506101b46004803603602081101561018857600080fd5b81019080803573ffffffffffffffffffffffffffffffffffffffff1690602001909291905050506104c4565b604051808215151515815260200191505060405180910390f35b3480156101da57600080fd5b506101e36104e4565b6040518082815260200191505060405180910390f35b6000803373ffffffffffffffffffffffffffffffffffffffff1673ffffffffffffffffffffffffffffffffffffffff16815260200190815260200160002060009054906101000a900460ff161515156102ba576040517f08c379a00000000000000000000000000000000000000000000000000000000081526004018080602001828103825260108152602001807f416c726561647920656e67616765642e0000000000000000000000000000000081525060200191505060405180910390fd5b6000811180156102cc57506002548111155b1515610340576040517f08c379a000000000000000000000000000000000000000000000000000000000815260040180806020018281038252600c8152602001807f496e636f7272656374204944000000000000000000000000000000000000000081525060200191505060405180910390fd5b60016000803373ffffffffffffffffffffffffffffffffffffffff1673ffffffffffffffffffffffffffffffffffffffff16815260200190815260200160002060006101000a81548160ff021916908315150217905550600180600083815260200190815260200160002060020160006101000a81548160ff021916908315150217905550807f3eb1a7eb3c61ea2cf41d34e49115d8865f99bfdd711442b323459f30ea3ede0460405160405180910390a250565b6001602052806000526040600020600091509050806000015490806001018054600181600116156101000203166002900480601f0160208091040260200160405190810160405280929190818152602001828054600181600116156101000203166002900480156104a75780601f1061047c576101008083540402835291602001916104a7565b820191906000526020600020905b81548152906001019060200180831161048a57829003601f168201915b5050505050908060020160009054906101000a900460ff16905083565b60006020528060005260406000206000915054906101000a900460ff1681565b6002548156fea165627a7a72305820a1847bf0783a7bb80296fe8e7b29ae25ce3f03e228806ad5011833303b66cf2c0029",
  "source": "pragma solidity 0.5.0;\n\ncontract Selection {\n  // Model a Agent\n  struct Agent {\n    uint id;\n    string name;\n    bool busy;\n  }\n\n  // Store accounts that have voted\n  mapping(address => bool) public engagers;\n  // Store Agents\n  // Fetch Agent\n  mapping(uint => Agent) public agents;\n  // Store Agents Count\n  uint public agentsCount;\n\n  // voted event\n  event engagedEvent (\n  uint indexed _agentId\n  );\n\n  constructor () public {\n    addAgent(\"0x45539C89A9836399C45C3a8c0F01e8ae4EB43dFD\");\n    addAgent(\"ETH_agent_2\");\n    addAgent(\"ETH_agent_3\");\n    addAgent(\"ETH_agent_4\");\n  }\n\n  function addAgent (string memory _name) private {\n    agentsCount ++;\n    agents[agentsCount] = Agent(agentsCount, _name, false);\n  }\n\n  function engage (uint _agentId) public {\n    // require that they haven't engaged before\n    require(!engagers[msg.sender], \"Already engaged.\");\n\n    // require a valid agent\n    require(_agentId > 0 && _agentId <= agentsCount, \"Incorrect ID\");\n\n    // record that user is engaging with agent\n    engagers[msg.sender] = true;\n\n    // update agent Count\n    agents[_agentId].busy = true;\n\n    // trigger engagement event\n    emit engagedEvent(_agentId);\n  }\n\n  function () external payable {\n    // payable contract\n  }\n}\n",
  "sourcePath": "/Users/anmar/ethgram/contracts/Selection.sol",
  "compiler": {
    "name": "solc",
    "version": "0.5.0+commit.1d4f565a.Emscripten.clang"
  },
  "schemaVersion": "3.0.0",
  "updatedAt": "2019-01-26T10:36:17.033Z",
  "devdoc": {
    "methods": {}
  },
  "userdoc": {
    "methods": {}
  }
}